:0200000460009A
:100000004643464200000156000000000101020084
:1000100000000000000000000000000000000000E0
:1000200000000000000000000000000000000000D0
:1000300000000000000000000000000000000000C0
:1000400000000000010403000000000000000000A8
:100050000000200000000000000000000000000080
:100060000000000000000000000000000000000090
:100070000000000000000000000000000000000080
:10008000EB04180A063204260000000000000000FD
:10009000050404240000000000000000000000002F
:1000A0000000000000000000000000000000000050
:1000B0000604000000000000000000000000000036
:1000C0000000000000000000000000000000000030
:1000D00020041808000000000000000000000000DC
:1000E0000000000000000000000000000000000010
:1000F0000000000000000000000000000000000000
:10010000D8041808000000000000000000000000F3
:100110000204180804200000000000000000000095
:1001200000000000000000000000000000000000CF
:10013000600400000000000000000000000000005B
:1001400000000000000000000000000000000000AF
:10015000000000000000000000000000000000009F
:10016000000000000000000000000000000000008F
:10017000000000000000000000000000000000007F
:10018000000000000000000000000000000000006F
:10019000000000000000000000000000000000005F
:1001A000000000000000000000000000000000004F
:1001B000000000000000000000000000000000003F
:1001C000000100000010000001000000000000001D
:1001D000000001000000000000000000000000001E
:1001E000000000000000000000000000000000000F
:1001F00000000000000000000000000000000000FF
:10020000FFFFFFFFFFFFFFFFFFFFFFFFFFFFFFFFFE
:10021000FFFFFFFFFFFFFFFFFFFFFFFFFFFFFFFFEE
:10100000D10020402C100060000000000000000013
:1010100020100060001000600000000000000000D0
:1010200000000060187300000000000000000120B4
:1010300059100060884204D170470B680360043186
:1010400004309042F9D3704702E00023036004307B
:101050008842FAD3704700BF4B4B4C4A5A644C4A03
:101060001A644FF42A029A634A4B9D4608224A4B5F
:10107000C3F85421494A4A494A48FFF7DBFF4A4A24
:101080004A494B48FFF7D6FF4A494B48FFF7DCFF78
:101090004FF47002494B1A60002304E04849494A62
:1010A00042F823100133AF2BF8D9002303E080214D
:1010B000454A995401339F2BF9D9444B414A1A6050
:1010C00000F0C4F8424CE36923F07F0343F040038F
:1010D000E361636A23F07F0343F0400363622A4BBA
:1010E0004FF0FF329A66DA661A675A6700F0C2F864
:1010F00000F0C2FB00F036F900F0A8F8354800F027
:10110000D3FB00BF00BF00BF00BFE36E43F44053FA
:10111000E366314B00221A60C3F80821C3F8182196
:10112000C3F82821C3F8382103F5A0239B6B13F0E3
:10113000010F09D1294B2A4A5A6542F615621A65F0
:101140009A6B42F001029A63244A936843F00113B8
:10115000936000F09DFB234B1B68132BFBD900F021
:10116000CBF900F079FA00F097FB00F02FF900F0CE
:101170009FFB1C4B1B68B3F5967FFAD300F090FBE6
:1011800000F07EFBFEE700BF00C00A40ABAAAAAA9F
:10119000070020000080072000800D40184A000052
:1011A0004019006000000000C00F00205C63006078
:1011B00000000020C0320020C00F002088ED00E0B9
:1011C000E12A00000018002000E400E008ED00E043
:1011D00000C00F400046C3230040084000400D40BF
:1011E0000000C056F413002033B9164B1B6F13F4E4
:1011F000005F03D1002302E0002300E0012303BBD2
:1012000000F03F0040F489100E4B186721F0604158
:10121000C3F8801022F06042C3F890201A6F22F4C5
:1012200080521A67074B1B6F002BFBDA054BD3F874
:101230007011054A0A40C3F870211A6F22F48032F7
:101240001A67704700800D40FF7F7FFF064B4FF00D
:101250008032C3F804210549C3F80011C3F8F42013
:10126000034AC3F8F020704700800D401B1018207F
:101270000C0D111310B4244C00202060234A1023BD
:101280001360234B23491960112111602249196011
:101290001221116021491960214911602149196009
:1012A0002149116021491960214941F0150111605E
:1012B0002049196001F181510D3111601E491960F9
:1012C0001E4911601E4919601E4911601E491960AE
:1012D0001E4911601E4919601E4911601E4A1A609C
:1012E00001232360BFF34F8FBFF36F8F1B4B186039
:1012F000BFF34F8FBFF36F8F194A136843F4403326
:1013000013605DF8044B704794ED00E09CED00E045
:10131000A0ED00E03F0000102500080309001000C8
:1013200013002000210002071400002025000813EC
:10133000C03200200900001027000B1317000040E6
:1013400033001013180000602F000B071900007005
:1013500037000B171A0000702F000B1350EF00E03E
:1013600014ED00E0184B1B6913F0020F0AD0164B66
:101370004FF440429A614FF480325A6143F2420284
:101380009A61EFE713F4005F04D14FF400520E4B63
:101390005A61E7E713F4805F04D14FF480520A4B9F
:1013A0005A61DFE7002BDDDA13F4803F04D04FF4FD
:1013B0008032054B9A61D5E713F0400F03D14022EC
:1013C000014B5A61CEE7704700800D40F0B43F4AB0
:1013D000136823F0010313600323C2F890303C4BE1
:1013E000D3F8E000C1B23B4E3160C0F30B233A4F5B
:1013F0003B6007EE901AF8EE677AF3EE096A77EE33
:10140000E66A364CC4ED006AC3EB1050344D2860D8
:10141000553901FB00F107EE901AB8EE677A87EEB6
:10142000266A07EE903AF8EE677A77EE867AFCEE57
:10143000E77A136817EE901A43EA01531360D7ED69
:10144000007AF8EE677A3368A3F15A012D6805FB3C
:1014500001F194ED006A07EE101AF8EE476A86EE85
:10146000867A37EE877ABCEEC77A17EE101AD2F872
:1014700010411C4800EA01412143C2F81011193BF8
:1014800003FB05F307EE103AB8EE477AC7EE066A9B
:1014900077EEA67AFCEEE77AD2F8101117EE903AC2
:1014A000C3F30B030B43C2F81031136843F002037C
:1014B000136000220C4B1A700C4A0D4BC3F84021EC
:1014C00001220C4B1A60F0BC704700BF80810D40B8
:1014D00000441F40F813002004140020FC130020D7
:1014E000001400200000FF0F40E400E0C92B0000C2
:1014F0000018002008E100E038B540F66172304B7A
:10150000C3F8202100F0DCF92E4AD2F8803043F0F5
:101510000303C2F8803040F204422B4BC3F8602131
:101520002A4B1A682A4B1A4205D1274BD3F8A83107
:1015300013F0030F1BD04FF00042244B5A63224A92
:10154000D2F8403143F00203C2F840311E4BD3F8C9
:10155000403113F0020FF9D14FF400321D4B1A60E5
:101560004FF00042194B9A63192000F0A5F9174B70
:101570004FF080429A6300211960134C0A23C4F88B
:10158000A831154D4FF42072284600F07DF94FF434
:1015900081032B604FF480032B64C4F8585140F250
:1015A0004313C4F848310D4A0D4BC3F804224FF4DD
:1015B00000320C4B1A600123C4F8403138BD00BF23
:1015C00000800D4000C00F4000002E4000900D40F4
:1015D000001C1E008CE200E0003000209131000071
:1015E000001800200CE100E070B4B1F5607F01D973
:1015F0004FF4607172B6154B18600023144A1380C3
:101600001B2B05D80024134A42F823400133F7E787
:10161000002291420CD9550902F01F040123A34076
:101620000C4C54F82560334344F825300132F0E780
:101630000023994206D903EB8314A200024453808D
:101640000133F6E762B670BC704700BF9016002009
:101650009616002020160020144BDA6E42F4403219
:10166000DA66DA6E42F44072DA66A3F5603340F26D
:1016700037625A64A0229A6401220D4B1A700D4BF6
:101680009B6C13F0800FFAD10B4B40F237625A6417
:10169000A0229A640122064B1A70074B9B6C13F030
:1016A000800FFAD10022024B1A70704700C00F4021
:1016B000B216002000400C4000800C4080C00F405B
:1016C000000000031900000010000000E8841F4023
:1016D00001000000FF000000FF000000000000000B
:1016E000000000001800000010000000E4841F400B
:1016F00001000000FF000000FF00000000000000EB
:10170000000000001F00000070C00F40000C00002F
:101710001100000011000000E0841F4002000000E2
:101720002400000012000000E0841F4001000000BF
:101730001000000011000000DC841F4002000000C7
:101740002500000012000000DC841F4001000000A2
:101750001E00000070C00F40C0000000120000001A
:1017600013000000D0841F4001000000FF000000B3
:10177000FF00000000000000000000001300000057
:1017800013000000CC841F4001000000FF00000097
:10179000FF00000000000000000000001C0000002E
:1017A00016035500530042002000530065007200EC
:1017B000690061006C0000001803540065006500BA
:1017C0006E00730079006400750069006E006F00A0
:1017D0000403090409024300020100C032090400A5
:1017E000000102020100052400100105240101018D
:1017F00004240206052406000107058203100010D8
:1018000009040100020A000000070503024000006D
:10181000070584024000000009024300020100C0E5
:101820003209040000010202010005240010010534
:101830002401010104240206052406000107058293
:101840000310000509040100020A00000007050357
:101850000200020007058402000200000A060002DE
:1018600002000040010001FFF8B500BFF8BC08BC51
:101870009E467047FFFFFFFF5FF800F0792A0000E7
:101880005FF800F08D3E00005FF800F01D4600009C
:101890005FF800F0F92A00005FF800F0112A00005C
:1018A0005FF800F04D4000005FF800F00D260000EA
:1018B0005FF800F0FD2A00005FF800F0ED2800005E
:1018C0005FF800F0393400004500000039020000E4
:1018D00075030000DD050000150600004D06000040
:1018E00085060000BD060000F50600002D0700007B
:1018F000650700009D070000D50700000D080000E7
:10190000450800007D080000B5080000ED08000053
:10191000250900005D09000095090000CD090000BF
:10192000050A00003D0A0000750A0000F10B0000E6
:1019300045130000091D0000811F0000FFFFFFFF8D
:101940000000000000000000000000000000000097
:101950000000000000000000000000000000000087
:1019600010B5054C237833B9044B13B10448AFF3D9
:1019700000800123237010BDC00F00200000000074
:10198000144A0000084B10B51BB108490848AFF3D2
:1019900000800848036803B910BD074B002BFBD03B
:1019A000BDE81040184700BF00000000C40F002031
:1019B000144A0000C00F00200000000070B404466C
:1019C00000F12403174D05600125457203610023D2
:1019D0000372C360657A9D4205DD2569002645F8DE
:1019E00023600133F6E7104B1C6814B9186004E05B
:1019F0001C466369002BFBD1606100234361838037
:101A0000C3808372094C046001760262C3618B4219
:101A100005DA026A002442F823400133F7E770BC7C
:101A2000704700BF080000201C1600201400002092
:101A3000012831D14FF6FF7399422DD170B5174C63
:101A4000002211462046FFF7B9FF154B2360002501
:101A5000A562E5624FF480432363124B6363012365
:101A600084F83830104E06F1280202213046FFF784
:101A7000A5FF0E4B3360304601F07AFD0C48046040
:101A8000466005724572C56001F0EEFE094B0A4AD8
:101A90001A600A221A7270BD704700BFE80F00205A
:101AA0001C03002000442C472410002010030020B9
:101AB00054100020DC0F00207C02002000000000F9
:101AC00010B54FF47A7002F0B1FB234C23685B68C9
:101AD0001A2222492046984723685B683822204909
:101AE00020469847204603F061FE0A211D4804F075
:101AF00023FC0A2001F016FE1B4800F019F91B4BCD
:101B000093ED0D6AB6EE007A26EE077ADFED187ACD
:101B1000B4EEE77AF1EE10FA01D4B0EE677AB7EEE0
:101B2000C66A9FED0B4B84EE065BB7EEC77A27EED5
:101B3000057B0E4BBCEEC77B83ED0B7A40F2471260
:101B40001A63012283F8382010BD00BFAFF3008074
:101B5000000000000000F041640700201800002091
:101B60003400002000002020DC0F0020E80F0020BF
:101B700000009643704700BF08B54FF6FF71012083
:101B8000FFF756FF08BD00BF2DE9F04F00F5807E3E
:101B9000B1E8A00AB2E84015C5EA0643C6EA254402
:101BA000C7EA0845C8EA2746C9EA0A47CAEA2948EF
:101BB000CBEA0C49CCEA2B4AA0E8F8078645E7D1E6
:101BC000BDE8F04F70474FF000022DE9F00F00F52F
:101BD000807C00BFB1E8A00AC5EA0203C2EA25443E
:101BE000C7EA0205C2EA2746C9EA0207C2EA29484B
:101BF000CBEA0209C2EA2B4AA0E8F8078445E9D1FA
:101C0000BDE8F00F70474FF000022DE9F00F00F52E
:101C1000807C00BFB1E8A00AC2EA0543C2EA05041D
:101C2000C2EA0745C2EA0706C2EA0947C2EA09084A
:101C3000C2EA0B49C2EA0B0AA0E8F8078445E9D1D9
:101C4000BDE8F00F70472DE9F00F089C00F5007B10
:101C500051F8045B53F8046BC5EA0647C6EA254908
:101C600052F8045B54F8046BC5EA0648C6EA254AF4
:101C7000A0E880078345EBD1BDE8F00F704700BFB7
:101C800001280AD108B54FF6FF73994204D1034ADF
:101C90000349044803F068FE08BD70476006002051
:101CA000690300006410002010B5044603F01AFD1B
:101CB000204610BD08B54FF6FF710120FFF7E0FF89
:101CC00008BD00BF0020704700207047F8B50E46E1
:101CD0001746242900D1C280037A144C5B0084F893
:101CE0003D30012584F8605084F85F5023681B68FC
:101CF000C6F307212046984723681B68F1B22046A7
:101D0000984723681B68C7F3072120469847236834
:101D10001B68F9B2204698472946204601F048FF43
:101D200008B92846F8BD0020F8BD00BFBC06002059
:101D300038B5044601230371344802F00DF805203C
:101D400002F074FA44F2600230212046FFF7BEFF31
:101D50000546002858D06C2226212046FFF7B6FF02
:101D60004FF4F97228212046FFF7B0FF40F62272A7
:101D70002C212046FFF7AAFF44F246423C21204690
:101D8000FFF7A4FF40F2371224212046FFF79EFF01
:101D900044F2FF0230212046FFF798FF7322022110
:101DA0002046FFF793FF4FF4C87002F03FFA41F668
:101DB0001D522E212046FFF789FF0422114620469E
:101DC000FFF784FF302206212046FFF77FFF102215
:101DD0000A212046FFF77AFF00220E212046FFF756
:101DE00075FF43F63C4210212046FFF76FFF47F690
:101DF0007F7222212046FFF769FF362224212046E8
:101E0000FFF764FF01236372284638BDBC0600203B
:101E100010B5044671B955222021FFF757FF03463C
:101E200010B3E28842F0040224212046FFF74EFF5F
:101E3000034619E0012916D140F273122A21FFF757
:101E400045FF034680B1882220212046FFF73EFF50
:101E5000034648B1E28822F0040224212046FFF71D
:101E600035FF034600E00023184610BD38B505468F
:101E700071B90123037147F67F722221FFF726FF14
:101E8000EA8842F0100224212846FFF71FFF38BDE0
:101E9000802902D8C1F1800400E000242B7943B1ED
:101EA00000232B71EA8822F0100224212846FFF734
:101EB0000DFF44EA042222212846FFF707FF38BD20
:101EC00008B5DFED0B7A20EE270AB7EEC00A9FEDCA
:101ED000067B30EE070BFCEEC07B17EE901AFFF787
:101EE000C5FF08BDAFF30080560E2DB29DEFDF3F5A
:101EF0000000014301280AD108B54FF6FF7399424B
:101F000004D1034A0349044803F02EFD08BD70477D
:101F100060060020690300006C10002008B54FF631
:101F2000FF710120FFF7E6FF08BD00BF01280AD1BD
:101F300008B54FF6FF73994204D1034A0349044898
:101F400003F012FD08BD7047600600206903000021
:101F50007410002008B54FF6FF710120FFF7E6FF6F
:101F600008BD00BF01280AD108B54FF6FF7399429A
:101F700004D1034A0349044803F0F6FC08BD704746
:101F800060060020690300007C10002008B54FF6B1
:101F9000FF710120FFF7E6FF08BD00BF01280AD14D
:101FA00008B54FF6FF73994204D1034A0349044828
:101FB00003F0DAFC08BD70476006002069030000EA
:101FC0008410002008B54FF6FF710120FFF7E6FFEF
:101FD00008BD00BF01280AD108B54FF6FF7399422A
:101FE00004D1034A0349044803F0BEFC08BD70470E
:101FF00060060020690300008C10002008B54FF631
:10200000FF710120FFF7E6FF08BD00BF01280AD1DC
:1020100008B54FF6FF73994204D1034A03490448B7
:1020200003F0A2FC08BD70476006002069030000B1
:102030009410002008B54FF6FF710120FFF7E6FF6E
:1020400008BD00BF01280AD108B54FF6FF739942B9
:1020500004D1034A0349044803F086FC08BD7047D5
:1020600060060020690300009C10002008B54FF6B0
:10207000FF710120FFF7E6FF08BD00BF01280AD16C
:1020800008B54FF6FF73994204D1034A0349044847
:1020900003F06AFC08BD7047600600206903000079
:1020A000A410002008B54FF6FF710120FFF7E6FFEE
:1020B00008BD00BF01280AD108B54FF6FF73994249
:1020C00004D1034A0349044803F04EFC08BD70479D
:1020D0006006002069030000AC10002008B54FF630
:1020E000FF710120FFF7E6FF08BD00BF01280AD1FC
:1020F00008B54FF6FF73994204D1034A03490448D7
:1021000003F032FC08BD7047600600206903000040
:10211000B410002008B54FF6FF710120FFF7E6FF6D
:1021200008BD00BF01280AD108B54FF6FF739942D8
:1021300004D1034A0349044803F016FC08BD704764
:102140006006002069030000BC10002008B54FF6AF
:10215000FF710120FFF7E6FF08BD00BF01280AD18B
:1021600008B54FF6FF73994204D1034A0349044866
:1021700003F0FAFB08BD7047600600206903000009
:10218000C410002008B54FF6FF710120FFF7E6FFED
:1021900008BD00BF01280AD108B54FF6FF73994268
:1021A00004D1034A0349044803F0DEFB08BD70472D
:1021B0006006002069030000CC10002008B54FF62F
:1021C000FF710120FFF7E6FF08BD00BF01280AD11B
:1021D00008B54FF6FF73994204D1034A03490448F6
:1021E00003F0C2FB08BD70476006002069030000D1
:1021F000D410002008B54FF6FF710120FFF7E6FF6D
:1022000008BD00BF01280AD108B54FF6FF739942F7
:1022100004D1034A0349044803F0A6FB08BD7047F4
:102220006006002069030000DC10002008B54FF6AE
:10223000FF710120FFF7E6FF08BD00BF01280AD1AA
:1022400008B54FF6FF73994204D1034A0349044885
:1022500003F08AFB08BD7047600600206903000098
:10226000E410002008B54FF6FF710120FFF7E6FFEC
:1022700008BD00BF01280AD108B54FF6FF73994287
:1022800004D1034A0349044803F06EFB08BD7047BC
:102290006006002069030000EC10002008B54FF62E
:1022A000FF710120FFF7E6FF08BD00BF01280AD13A
:1022B00008B54FF6FF73994204D1034A0349044815
:1022C00003F052FB08BD7047600600206903000060
:1022D000F410002008B54FF6FF710120FFF7E6FF6C
:1022E00008BD00BF01280AD108B54FF6FF73994217
:1022F00004D1034A0349044803F036FB08BD704784
:102300006006002069030000FC10002008B54FF6AD
:10231000FF710120FFF7E6FF08BD00BF01280AD1C9
:1023200008B54FF6FF73994204D1034A03490448A4
:1023300003F01AFB08BD7047600600206903000027
:102340000411002008B54FF6FF710120FFF7E6FFEA
:1023500008BD00BF01280AD108B54FF6FF739942A6
:1023600004D1034A0349044803F0FEFA08BD70474C
:1023700060060020690300000C11002008B54FF62C
:10238000FF710120FFF7E6FF08BD00BF01280AD159
:1023900008B54FF6FF73994204D1034A0349044834
:1023A00003F0E2FA08BD70476006002069030000F0
:1023B0001411002008B54FF6FF710120FFF7E6FF6A
:1023C00008BD00BF08B5304B996C08792F4AD0770B
:1023D000586C00791077097911771B6C002B3ED06F
:1023E000B3F5004F04D32A4A1A44274B1A642DE050
:1023F000254A526C1268D18B11F4004F03D1C3F3FC
:102400000E03D38306E0D18B01F47E41C3F30803AE
:102410000B43D383D38B9BB2D3821B4B996C1A6C27
:102420000B68D98B11F4004F03D1C2F30E02DA838B
:1024300006E0D98B01F47E41C2F308020A43DA8335
:10244000DA8B92B2DA8200220F4B1A640E4A936C36
:1024500019790E4BD976526C1279DA7608BD0A4A90
:1024600013680F2199650021D96140F2013018618C
:102470004FF47C505861032382F83D30D06C0368E0
:102480001B680A46984708BD6406002000800E407D
:102490000180FFFF7BB370B41E46036840F2012445
:1024A0001C613546CEB1036811B10C78013101E0F1
:1024B00090F83C405C66013E03681C6F14F0020F0C
:1024C00005D15B6FDBB20AB113700132013D0368C5
:1024D0005B6913F0010FEFD0E4E75DB10368196F9A
:1024E00011F0020FF9D15B6FDBB20AB11370013248
:1024F000013DF2E770BC704700207047704700BF95
:10250000012810D14FF6FF7399420CD1064B0022DF
:102510009A700221596083F8242083F830200349FF
:10252000D96283F8322070471C110020F802002085
:1025300008B54FF6FF710120FFF7E2FF08BD00BFAD
:102540004FF08072054B1B6B013A034001D1002A0A
:10255000F8D10AB9002070471846704700002C4097
:1025600008B5214A136B43F0800313631E4B5B6A6B
:1025700013F0010F06D11C4B5B6A13F0020F03D05E
:10258000012302E0012300E00023002BEED1164BD3
:10259000D8601648FFF7D4FF012806D0124A116B05
:1025A000134B0B431363012008BD0F4B1B6B13F040
:1025B000800F06D00C4A136B43F001131363032002
:1025C00008BD094B1B6B13F4803F06D0064A136B02
:1025D00043F001131363052008BD034A136B43F056
:1025E00001031363002008BD00002C4001000E0011
:1025F00001000F0008B50022024B9A600248FFF765
:10260000AFFF08BD00002C400000DB0C10B54FF4FC
:102610007A74FFF7EFFF013C07D00A4B5B6A13F0B7
:10262000040F04D028B1002304E0002302E00023BB
:1026300000E00123002BECD118B90CB9052010BD26
:10264000002010BD00002C4010B50022072A37D80A
:102650001C490B6B43F020040C6313F4E00F06D00D
:10266000194A1A430A63FFF7D1FF012010BD154B29
:102670005B6A13F4006FFAD0124B196A0160196A91
:102680004160196A8160196AC160196A0161196A39
:102690004161196A8161196AC161196A0162196A25
:1026A0004162196A8162196AC162196A0163196A11
:1026B0004163196A81631B6AC36301324030C5E715
:1026C000002010BD00002C402000700010B5002438
:1026D000072C2FD8184B1B6B13F0100FFAD0164B8A
:1026E0001B6B13F4E00F08D0134A116B134B0B4311
:1026F0001363FFF78BFF012010BD00230F2B05D8BC
:1027000001680D4A116201330430F7E70A4B1A6B76
:1027100042F010021A631B6B13F4E00F08D0064A54
:10272000116B064B0B431363FFF770FF012010BDC5
:102730000134CDE7002010BD00002C4010007000D7
:1027400008B5074B98604FF481325A600548FFF78F
:1027500007FF034608B9024A1269184608BD00BFC0
:1027600000002C4010003A1108B5074B98604FF458
:1027700081325A600548FFF7F3FE034608B9024A62
:102780001269184608BD00BF00002C4000003A182E
:10279000114B1B78EBB910B504460F4B5B7803B9AE
:1027A00049020E4B4FF6FF721A639A6C42F0100208
:1027B0009A640846FFF7C4FF68B92046FFF744FF54
:1027C000064B1B6B13F0020FFAD0054A034B1A633A
:1027D00010BD0320704710BD7011002000002C4078
:1027E00022000001114B1B78E3B910B504460F4BD2
:1027F0005B7803B949020E4B1A6B1A639A6C22F08C
:1028000010029A640846FFF7AFFF68B92046FFF749
:102810005DFF074B1B6B13F0020FFAD0054A044B08
:102820001A6310BD0320704710BD00BF7011002057
:1028300000002C4012000001044B1A685066D36D52
:1028400013F4F81FFBD0536F704700BF64060020DD
:10285000054B1A68FF235366D36D13F4F81FFBD0A2
:10286000506FC0B2704700BF640600200021814253
:102870000AD2064B1A68FF235366D36D13F4F81F70
:10288000FBD0536F0131F2E7704700BF64060020B0
:10289000012808D14FF6FF73994204D1024B034A35
:1028A0001A6007225A6070478011002000093D001D
:1028B00038B504460D460A46FF2103F04FFB2B4670
:1028C000224621460148FFF7E5FD38BD6406002099
:1028D00008B50121007801F0BFFC1B4B1B78002BD1
:1028E00031D00022184B1A70184BDB7C002B2AD0F9
:1028F00013F0010F03D0154B9A6A154B1A60134B56
:10290000DB7C13F0020F03D0104BDA6A114B1A6014
:102910000E4BDB7C13F0040F03D00C4B1A6B0E4BE9
:102920001A600A4BDB7C13F0080F03D0074B5A6B7D
:102930000A4B1A60054BDB7C13F0100F03D0034BDE
:102940009A6B074B1A6008BD8811002064060020AE
:1029500000E100E004E100E008E100E00CE100E05B
:1029600010E100E010B582B002464A4B1B78002B04
:1029700040F08A800121474B1970474B93E80300D0
:1029800002AB03E90300454BDB7C002B3DD072B664
:10299000424BDB7C13F0010F06D041490C683F48E5
:1029A0004369234083620B603C4BDB7C13F0020FD6
:1029B00006D03C490C68394883692340C3620B60E8
:1029C000364BDB7C13F0040F06D037490C683348D4
:1029D000C369234003630B60304BDB7C13F0080FAB
:1029E00006D032490C682D48036A234043630B60CC
:1029F0002A4BDB7C13F0100F06D02D490C682748BA
:102A0000436A234083630B6062B60098234B9B6844
:102A100098422DD0214B9860264B9B69C3F301143B
:102A2000254951F82410C3F382630133B1FBF3F15C
:102A300010B1B1FBF0F300E00B4623B1B1FBF3F1B1
:102A4000884200D20133B3F5817F01D340F20113F4
:102A5000022B01D9023B00E00023D8B25B08190227
:102A600089B201431B0403F47F030B430B49CB6082
:102A70000A490B680020186103205862C96819646C
:102A800001991966012119610021107801F0E4FB18
:102A900002B010BD881100208011002064060020C3
:102AA00080E100E084E100E088E100E08CE100E00A
:102AB00090E100E000C00F409002002038B50D46C4
:102AC000074B1C68FFF7C4FEFF2806D0044B1B68A9
:102AD0001B1BAB42F6D3002038BD012038BD00BF20
:102AE000F4130020F8B505460F4616464FF49671CC
:102AF000FFF7E4FF47F04000FFF79EFE1824002C8C
:102B000007DB26FA04F0C0B2FFF796FE083C64B279
:102B1000F5E70FB1FF2000E09520082F00D18720B6
:102B2000FFF78AFE0024FFF793FE687010F0800F15
:102B300003D0FF2C03D1002302E0002300E0012397
:102B400013B10134E4B2EEE7F8BD00BF38B5044676
:102B50000A4B1D68FFF77CFE6070FF2806D1074B0B
:102B60001B685B1BB3F5967FF4D903E0FE2803D006
:102B7000002038BD002038BD012038BDF4130020EE
:102B800070B504460D4616468378032B00D04D02DF
:102B90002046FFF7E7FE2A4611212046FFF7A2FF55
:102BA00080B92046FFF7D2FF60B14FF40071304684
:102BB000FFF77EFE0220FFF759FE2046FFF788FE52
:102BC000012070BD2046FFF783FE002070BD00BFCE
:102BD00070B5064615460846FFF72EFE0024B4F5EC
:102BE000007F05D2285DFFF727FE0134A4B2F6E787
:102BF000FF20FFF721FEFF20FFF71EFEFFF728FE54
:102C0000707000F01F00052801D0002070BD012069
:102C100070BD00BF70B5044671B316460D4683788B
:102C2000032B00D04D022046FFF79CFE2A461821B8
:102C30002046FFF757FFF8B93246FE212046FFF73E
:102C4000C7FFC8B14FF416712046FFF737FF98B1A0
:102C500000220D212046FFF745FF20B9FFF7F8FDC0
:102C600018B9002302E0012300E0012323B9204624
:102C7000FFF72EFE012070BD2046FFF729FE002041
:102C800070BD00BF08B54FF6FF710120FFF700FED1
:102C900008BD00BF10B5044600F108020121006A1A
:102CA00000F072FA034650B1E3693BB9A368E361EF
:102CB000637963F07F036371012300E00123184609
:102CC00010BD00BF10B50446006900F0AFF920B197
:102CD000207D034B03EB401010BD002010BD00BF52
:102CE00098110020837923B182698A4203D201229C
:102CF00002E0012200E000226ABB022B02D1C16087
:102D0000012229E021B900238360C360012223E06E
:102D100070B50E460446C068411E236A1B7C03F151
:102D20000902D140731ED340994200D810B9E2691C
:102D3000A26000E05B1A5D1E53B104F10802A168B5
:102D4000206A00F0A3F92B4602460028F3D105E0E3
:102D5000E660012202E0002210467047104670BD76
:102D600038B50346807928B31C4693F90530002B0B
:102D70001CDA01212046FFF7A5FF0546C8B1A3795B
:102D8000012B01D8A369C361A38B6B83E38BAB8257
:102D9000094B1B6833B105F1160105F1180098477E
:102DA0002B8B6B82637903F07F03637100F000F972
:102DB00038BD002038BD00BF8C1100202DE9F04F38
:102DC00083B006460C4690468379012B05D14379A2
:102DD00013F0020F03D1012302E0012300E00023DE
:102DE000002B40F0C380737913F0040F01D14746E4
:102DF0000AE0F368B1698B42F9D03046FFF772FF01
:102E0000002800F0B380F2E7002F00F09380306AD2
:102E1000F36890F8049009F1FF3909EA5329C3F3E4
:102E2000080A19F0FF0B0CBF01230023BAF1000FB1
:102E300014BF002303F0010313B3B16841B9F36970
:102E400023B93046FFF726FFD0B98FE0B36017E013
:102E500001AA00F01BF9002800F08F80326A019B64
:102E600092F82020102A02D14FF6F87200E0444A6E
:102E7000934204D33046FFF70DFF08B976E0B36004
:102E8000CAF50075ADB2AF4200D2BDB2326AB368C6
:102E90005169023B92F8109003FA09F301EB030920
:102EA000D944B5F5007F1DD1364B1B68994503D138
:102EB0004FF0FF32334B1A60334B18680378FE2B08
:102EC00007D149462046FFF78DFCB0FA80F0400953
:102ED00003E022464946FFF79DFE002846D004F550
:102EE000007422E0BAF1000F10D1F268B3699A427F
:102EF0000CD300F05DF8002838D0224BC3F80090C6
:102F0000224A137843F00103137004E0012148467C
:102F100000F08CF850B31E4B534459198B4204D027
:102F200022781A7001330134F8E77F1BF3681D44DF
:102F3000F56069E7F368B269934205D9B3617379C3
:102F400063F07F03737109E0124B1B6833B1B8F172
:102F5000000F03D0737963F07F037371737913F0FB
:102F6000080F07D03046FFF7FBFE28B90123337165
:102F7000002002E0404600E0404603B0BDE8F08F8C
:102F8000F8FFFF0FB40600209411002098130020D2
:102F9000981100208C11002000B583B002AB03F81B
:102FA000011D01221946FFF709FF03B05DF804FB7C
:102FB00008B5194B1B7863B3184B1868184B196880
:102FC0000378FE2B06D11748FFF70CFCB0FA80F00F
:102FD000400902E0134AFFF71DFED8B1124B1968F1
:102FE00091B10E4B18680378FE2B06D10D48FFF700
:102FF000F9FBB0FA80F0400902E00A4AFFF70AFE46
:1030000040B10022084B1A600022034B1A700120C5
:1030100008BD012008BD00BF9813002094110020B6
:10302000B4060020981100209011002038B50D46FC
:10303000124B1B68834219D00446FFF7B9FF0346C1
:10304000C8B10F4B18680378FE2B07D121460D48F5
:10305000FFF79EFBB0FA80F35B0904E0094A2146C2
:10306000FFF78EFD034633B1044B1C60064B197805
:10307000294319700123184638BD00BFB40600204B
:10308000941100209811002098130020F8B5C3680F
:1030900001338B4229D3C36990F82040102C01D111
:1030A0000F0A00E0CF0916460D460446F818104BEB
:1030B0001B68984204D00021FFF7B8FF0346A8B16F
:1030C00094F82030102B06D1E9B20A4B33F81130B6
:1030D000336001230AE005F07F01064B53F82130ED
:1030E00023F070433360012300E000231846F8BD4D
:1030F000B406002098110020F8B5012935D9C3681D
:103100000133994233D8C36990F82040102C01D183
:103110000E0A00E0CE0917460C4605461E44164B23
:103120001B689E4205D000213046FFF77FFF034613
:1031300000B395F82030102B04D1E1B20F4B23F8E7
:10314000117004E004F07F010C4B43F821700C4A2D
:10315000137843F0010313702B7E012B09D9AB6860
:103160001E44084B1E60012304E0002302E00023FC
:1031700000E001231846F8BDB40600209811002095
:1031800098130020901100202DE9F04F83B00646DF
:103190008946924617681FB101374FF0000B06E0D1
:1031A0000768012914BF4FF0000B4FF0010BF368C3
:1031B00003F101083C460025F3689D4214D24445C2
:1031C00001D90224274601AA21463046FFF75EFFB7
:1031D00050B1019B0BB1671C03E0E31B0133994520
:1031E00004D001350134E7E7002326E06FF0704298
:1031F00021463046FFF780FF0346F0B1A74209D2CF
:10320000651E224629463046FFF776FF0346A0B1E9
:103210002C46F3E7DAF8001029B13A463046FFF7BA
:103220006BFF034648B1CAF80070BBF1000F03D032
:1032300001373760012300E00123184603B0BDE8E1
:10324000F08F00BF2DE9F0413D4B1A6812681979E3
:103250003C4BD9773C4B9A4207D23C4B1B7833B15D
:1032600040223B4B1A60384C02E03A4C00E0364CAE
:10327000394B1F68394BD3F80080394B1D88394BC7
:103280001E88002F18BFB8F1000F0CD0391D08F1AF
:10329000040202EB460201EB45012046FEF774FCF6
:1032A000403540361AE03FB1391D01EB450120465B
:1032B000FEF789FC403511E0B8F1000F08D008F1A5
:1032C000040101EB46012046FEF79DFC403605E077
:1032D0004FF480720021204602F040FE24F01F03CC
:1032E00004F58070BFF34F8F1F4A1360203398425C
:1032F000FAD8BFF34F8FBFF36F8F7F2D02D8184BD3
:103300001D800AE00024164B1C80384602F04AF962
:10331000164B1968104A11601C607F2E03D8114BA0
:103320001E80BDE8F08100240E4B1C80404602F058
:1033300039F90F4B1968094A11601C60BDE8F0812A
:10334000A413002000800E40400B2020AE1300206C
:1033500008E200E0400A2020B4130020A01300205F
:10336000AC130020B813002070EF00E09C13002085
:10337000B013002070B50646002100F069FA05463A
:1033800002F0C8F80446002D31D000227F2A10DC5C
:1033900005EB8203D3ED017A9FED337A67EE877AEE
:1033A00004EB4201FDEEE77A17EE903A8B80013292
:1033B000ECE7284600F016FA72B62C4B186828B9CC
:1033C0001C6000222A4B1A8062B610E0294B1B6851
:1033D0001BB9284B1C6062B609E0244A1360254BD8
:1033E0001C600022224B1A8062B602F0DBF8012139
:1033F000304600F02DFA0546002831D000227F2A01
:1034000010DC05EB8203D3ED017A9FED177A67EEAE
:10341000877A04EB4201FDEEE77A17EE903A8B8053
:103420000132ECE7284600F0DDF972B6124B18685D
:1034300028B91C600022114B1A8062B610E0104BB4
:103440001B681BB90E4B1C6062B609E00A4A136088
:103450000B4B1C600022094B1A8062B602F0A2F8E6
:10346000204602F09FF870BD00000047B413002012
:10347000AC1300209C130020A0130020B8130020E0
:10348000B013002001280AD108B54FF6FF73994206
:1034900004D1034A0349044802F066FA08BD7047A4
:1034A0006006002069030000A413002038B5284AF4
:1034B000D36F43F44023D367264B9B68002B46DB36
:1034C000244BD3F88830002B41DB002342F21072EA
:1034D0004FF40C611C2002F033FF1D4AD36923F422
:1034E000406343F40063D361916A1B4B0B4043F08C
:1034F000CE039362A2F5A0225168184B0B4043F40F
:1035000000235360164B0322C3F82021C3F828215F
:10351000C3F8242103F5C61300251D660124DC60D1
:10352000104A1A614FF4803058610F4999610F4A6F
:10353000DA61C3F8E050C3F88C4004F1E064C3F8EA
:103540009040C3F89400C3F89810C3F89C2038BD8D
:1035500000C00F400040384000FEFFFFF8FFF7FFBB
:1035600000801F40010000471B1F0100001F1F1F9C
:1035700038B5284C0121204602F058F80025264B8A
:103580001D60264B1D60FFF791FF0322244BC3F8FB
:1035900080212368234A1A60236802229A8040F21D
:1035A0000111D9809A60A2F20222DA609D824FF462
:1035B0008072DA829D61DA8306229A831A4A1A613E
:1035C00022791A4B43F82250194943F822102279E4
:1035D000A3F58043DA7603F52713D3F8882042F069
:1035E0001042C3F88820134A9A6002F003F8124B85
:1035F0001870237903F110011048114A42F8210094
:10360000591103F01F03012202FA03F30D4A42F895
:10361000213038BDA4130020B4130020A0130020D3
:1036200000801F40400A20202240384000C00E4049
:103630001400008001000090AE1300200519000066
:103640000018002000E100E008B54FF6FF710120EE
:10365000FFF718FF08BD00BF164B1B783BB310B532
:103660000022144B1A70B0F5761F04D84FF405737E
:1036700003FB00F301E04FF0FF330446184602F06D
:10368000ADF8621E0346B2F1FF3F0BD08021C3F8B4
:103690000412C3F808120849C3F80C1203F50573A5
:1036A000013AF0E7054B1860044B186810BD034B56
:1036B00018687047B806002000442C47D413002037
:1036C00070B4C02900D9C02172B6144B1860002311
:1036D000052B05D80024124A42F823400133F7E7AE
:1036E000002291420CD9550902F01F040123A34086
:1036F0000B4C54F82560334344F825300132F0E791
:103700000023994206D94FF4057202FB030253705D
:103710000133F6E762B670BC704700BFDC130020CF
:10372000BC13002010B50446FFF796FF10B12146E8
:10373000FFF7C6FF10BD00BF10B472B6204B19686A
:1037400061B9596861B9996861B9D96861B919698C
:1037500061B9596961B962B600202EE0184B08E0E2
:10376000184B06E0184B04E0184B02E0184B00E041
:10377000184BB1FA81F24FF00040D04021EA00012D
:103780001960154801780131C9B2017062B60C4860
:103790001B1A9B1011480468C2EB431244F26C03DD
:1037A0004FF4057000FB0233E0180122E2540C4B89
:1037B0001B78994201D90A4B19705DF8044B704788
:1037C000BC130020C0130020C4130020C813002025
:1037D000CC130020D0130020D8130020DC130020CD
:1037E000D91300204378DA4302F01F014FF0004262
:1037F000CA405B1172B60178012902D90139017002
:1038000009E0064951F82300024341F82320044A05
:103810001378013B137062B6704700BFBC130020E1
:10382000D813002030B4C3697BB1187A90420AD112
:103830005868006A5C7A50F8245025B940F8241082
:10384000087801300870DB68EEE730BC704700BFD5
:10385000037E8B4206D9036A53F82100002243F805
:103860002120704700207047427A43681B7E9A42AD
:1038700010D872B60368DA6912B9D86104E01A4642
:10388000D368002BFBD1D060026801231372426819
:10389000137262B6704700BF01280AD108B54FF60F
:1038A000FF73994204D1034A0349044802F05CF8CB
:1038B00008BD70476006002069030000E013002087
:1038C00008B54FF6FF710120FFF7E6FF08BD00BF06
:1038D000F8B590F8383013F0FF0F43D00446036B6F
:1038E000CBB3FFF729FF0546A8B3D0F808E21E4B7B
:1038F000C3F800E0A16AD4F82CC00020704520D2A3
:103900000A0E1A4E36F91230013236F91220C1F37E
:103910000F27C7F5803606FB03F307FB0233226B44
:1039200053FB02F307EE903AF8EEE77A05EB8003DB
:103930006144DFED0F6A87EEA67A83ED017A0130EC
:10394000DCE7A162002229462046FFF76BFF2846EC
:10395000FFF748FFF8BDE36A034A1168A26A01FB5A
:103960000323A362F8BD00BFE8130020700000200D
:1039700000FEFF4690F83B2090F83A00101A70477E
:1039800090F83A3090F83B20934205D25A1C80F8C8
:103990003A200344987E70474FF0FF30704700BFD5
:1039A00090F83A3090F83B20934202D20344987E3C
:1039B00070474FF0FF307047704700BFB0F860307D
:1039C0007BB190F85F30202B03D9012303710020D5
:1039D00070475A1C80F85F20184480F83D10012081
:1039E00070470020704700BF38B5B0F86030BBB1F9
:1039F0000546144690F85F30C3F12102A24202D27C
:103A000001202871144605F13D002246184400F0BB
:103A100003FA95F85F30234485F85F30204638BDBF
:103A2000002038BD2DE9F0414369027E03EB02120C
:103A3000167A427E03EB021393F82840484B4FEA74
:103A4000061E03EB0E01CF68220103EB0208D8F833
:103A50000C5049684FF0150CC1F800C053F80E1017
:103A6000C1F8847053F80EE0DEF804103943CEF844
:103A70000410D8F80410C1F800C09958C1F8845057
:103A80009A5853682B435360364B1968364B1B6862
:103A9000364AA2FB03239B0C03EB83035A00314BF2
:103AA0001B685B1A9A42FAD8002108293EDC3301D0
:103AB0002B4AD3589B681F4206D02301D3589B68DA
:103AC0001D4203D1002302E0002300E001237BBB61
:103AD0002301234AD358C3F88850224BD3F800E07F
:103AE000214B1B68214AA2FB0332920C02EB82029B
:103AF0001C4B1B68CEEB03039A42F9D82301184AEA
:103B0000D358C3F88450174BD3F800E0164B1B680A
:103B1000164AA2FB0332920C02EB8202114B1B6885
:103B2000CEEB03039A42F9D80131BEE7002100E051
:103B300001210B4B03EB061675684269067E02EB0A
:103B40000612D2682A6003EB04135A684369407E68
:103B500003EB0013DB6A13600846BDE8F08100BF89
:103B600044030020041000E03007002083DE1B43E4
:103B700010B504460D4B1A6823695B6913F0007F8A
:103B80000CD013F0807F09D1084B1B689B1A102BB7
:103B9000F2D92046FFF746FF034620B123694FF4D0
:103BA000FE425A610123184610BD00BFF4130020E5
:103BB0002DE9F84390F85F60002E6ED00F46054661
:103BC000FFF7D6FF804600286AD03A4BD3F8009022
:103BD0000024B44220D82B69DB6D03F00703032BCC
:103BE0001AD83CB9296995F83D2042F480620A66EA
:103BF00001240FE0B44206D22A69291991F83D1038
:103C00001166013406E01FB12B694FF400721A6689
:103C1000013401E00133E2E72A69536913F4006FCC
:103C200006D0136943F4407313610420BDE8F883A0
:103C300013F4806F0AD0136943F4407313612B6946
:103C40004FF400721A660220BDE8F88313F4005F97
:103C500007D118490968C9EB0101322903D80021AD
:103C600002E0414600E0414651B1136943F440731C
:103C700013612B694FF400721A660420BDE8F883C3
:103C8000B44207D9D26D12F0070F03D113F4007FAD
:103C900009D15FB101F0CAFD9BE70420BDE8F883BC
:103CA0000420BDE8F8830020BDE8F8830020BDE8CB
:103CB000F88300BFF4130020036900221A611D4B32
:103CC00099420DD803691C4A9A64036901225A6219
:103CD00003691A4A9A6203694FF43032DA621BE0D0
:103CE000174B99420CD80369164A9A64036900225B
:103CF0005A620369144A9A620369144ADA620BE051
:103D00000369134A9A64036900225A620369114ADB
:103D10009A6203690D4ADA6203699A6C1A6503694B
:103D200000221A6203694FF001129A6503690122A9
:103D30001A6170477F1A06003B372819B80B050532
:103D40003F420F001C1A120C100E0202007F0500E9
:103D50000A0907046009010138B504462B4A936B30
:103D600023F47C0343F48023936341690A68156854
:103D70004B682B431360036902221A612449FFF741
:103D80009BFF6369227E03EB02131B7A214A02EB3D
:103D900003139B684FF6610119606369217E03EB91
:103DA0000113197A02EB01125268DB681360636930
:103DB000227E511C0901595821B1013203EB021333
:103DC0005B680B606369627E03EB021393F8283033
:103DD000104A02EB03139B684FF661011960636997
:103DE000617E03EB011393F8281002EB0112526875
:103DF000DB6A13606369627ED11C0901595821B1E5
:103E0000033203EB02135B680B6038BD00C00F4048
:103E1000A086010044030020844641EA000313F019
:103E200003036DD1403A41D351F8043B40F8043BC1
:103E300051F8043B40F8043B51F8043B40F8043B84
:103E400051F8043B40F8043B51F8043B40F8043B74
:103E500051F8043B40F8043B51F8043B40F8043B64
:103E600051F8043B40F8043B51F8043B40F8043B54
:103E700051F8043B40F8043B51F8043B40F8043B44
:103E800051F8043B40F8043B51F8043B40F8043B34
:103E900051F8043B40F8043B51F8043B40F8043B24
:103EA00051F8043B40F8043B403ABDD2303211D3C4
:103EB00051F8043B40F8043B51F8043B40F8043B04
:103EC00051F8043B40F8043B51F8043B40F8043BF4
:103ED000103AEDD20C3205D351F8043B40F8043BC4
:103EE000043AF9D2043208D0D2071CBF11F8013BC2
:103EF00000F8013B01D30B8803806046704700BF88
:103F0000082A13D38B078DD010F003038AD0C3F196
:103F10000403D21ADB071CBF11F8013B00F8013B78
:103F200080D331F8023B20F8023B7BE7043AD9D337
:103F3000013A11F8013B00F8013BF9D20B7803700C
:103F40004B7843708B78837060467047F0B58B4B2D
:103F50005F699A69A3F5F823DE68894B984213D903
:103F6000884B984216D9884B03441B0A874DA5FB02
:103F70000335ED0905EB850505EB850505F2E24501
:103F8000B5F5C56F09D20DE0814B984208D940F2D2
:103F90007E4507E040F2E24504E040F2276501E09B
:103FA00040F2B6357549D1F8803043F0C003C1F80E
:103FB000803006F01F03A5F548757649A1FB05156D
:103FC000C5F3C405AB4207D265F30406724BDE604D
:103FD000714B1B68002BFBDA17F0007F2ED16F4B63
:103FE00019696F4B8B4302D10324002301E00024A5
:103FF0000123E40687EA040111F0605F05D027F091
:10400000605144EA01075D494F611B0382EA0301E5
:1040100011F4405F09D022F440521A43574B9A6181
:10402000564B9B6C13F0080FFAD147F00077534BB7
:104030005F61524B9B6C13F0200FFAD101210A46AD
:1040400007E0072A01D8013203E0042908D801312A
:10405000012200FB02F303FB01F3524CA342F0D90F
:1040600051481844514BA3FB00031B0D6C2B00D986
:104070006C23352B00D836234D4800FB03F0B0FBF2
:10408000F2F0B0FBF1F0454C2468DFF844E104EABB
:104090000E0E03F07F03474C1C43A6450BD03F4C4C
:1040A0004FF4805EC4F800E043F4005323603B4BC0
:1040B0001B68002BFBDA314B1B6903F00703013A45
:1040C000934208D002F007022C4B1A612B4B9B6CD9
:1040D00013F4803FFAD10139890287EA010313F40E
:1040E000E05F0BD027F4E05701F4E0510F43234B7E
:1040F0005F61224B9B6C13F0020FFAD12E4A0244EF
:10410000D2092E4BA3FB0232120B042A00D904223F
:10411000531E1B0287EA030111F4407F06D027F4E7
:10412000407103F440731943144B596113494B69AF
:1041300023F000734B61114B9B6C13F0200FFAD1ED
:104140001F4B1860B0FBF2F21E4B1A601E4BA3FB14
:1041500000239B0C4FF0FF32B2FBF3F31B4A1360BA
:1041600006F01F039D4208D226F01F0635430A4B76
:10417000DD60094B1B68002BFBDAF0BD00C00F406F
:1041800000A4781F0046C32300BA3CDC23B24C00D5
:1041900000366E011F85EB510000084000800D4085
:1041A00040300080FFB19F26808D5B00819F5E16AE
:1041B000001BB700002000807FD1F0089F10E500B1
:1041C000300700202C07002083DE1B43F013002063
:1041D0007F30018010B4104B53E8002F0F4A146851
:1041E0000F4A1068012143E80012002AF3D10D4B59
:1041F0001B68181A0C4B1B68A3FB00010A46B1F59B
:104200007A7F01D94FF47A724FF47A7000FB042060
:104210005DF8044B704700BF08170020F41300201E
:10422000EC130020041000E0F013002098B138B522
:104230000546FFF7CFFF044603E0013D0AD004F531
:104240007A74FFF7C7FF001BB0F57A7FF5D201F053
:10425000EDFAF6E738BD7047272819D810B40001E9
:104260000C4B1A181B585C68D068044206D011B178
:10427000C3F884000AE0C3F8880007E019B1936826
:10428000054A1A6002E09368044A1A605DF8044B1C
:10429000704700BF4403002038F0010038300100AF
:1042A00010B44FF47043A0F88C310F23A0F88E3176
:1042B0000021A0F89011B0F888319BB243F0F003D0
:1042C000A0F8883116E04A000A44530103444FF431
:1042D00060429A804FF48062DA8000225A841A8603
:1042E0005A805A8148F2B824DC815A82DA825A8391
:1042F000DA8301310329E6DDB0F888319BB243F05F
:104300000F03A0F88831B0F888319BB243F4706392
:10431000A0F888315DF8044B704700BF30B400212D
:1043200012E04C01031900229A815A810F25DD8188
:1043300041F201059D8245F6C055DD8002531A8287
:1043400043F226029A8101310329EADD30BC70472D
:1043500008B5104B9A6F42F47F029A67D3F8801029
:104360000D4A0A43C3F880200C48FFF799FF0C4818
:10437000FFF796FF0B48FFF793FF0B48FFF790FFFF
:104380000A48FFF7CBFF0A48FFF7C8FF0948FFF7C5
:10439000C5FF08BD00C00F40000003FC00C03D4049
:1043A00000003E4000403E4000803E4000C01D40B6
:1043B00000001E4000401E40104B114A9A63114AF3
:1043C000DA636322104B1A60002204331A6003225E
:1043D000083B1A600D4A03F551631A600C4A1368D2
:1043E00043F0807313600B4A136843F001031360BA
:1043F000094B1A68094B1A60704700BF001800206B
:10440000193E0000213E000014E000E000002020E2
:10441000FCED00E0001000E0041000E0EC130020D0
:1044200004207146084203D0EFF3098000F008B879
:10443000EFF3088000F004B8704700BF704700BF7A
:1044400000B583B01B4B0522C3F848213822C3F8BE
:104450003823A3F570335A6842F008025A600822E4
:10446000C3F88420C3F88820134B1A68134B9A4270
:1044700002D91348FFF76AFD0822124BC3F88420C3
:104480000023019302E0019B01330193019A0E4B3B
:104490009A42F8D908220B4BC3F8882000230193D5
:1044A00002E0019B01330193019A084B9A42F8D92B
:1044B000E2E700BF00801F4030070020FF45C32314
:1044C00000A3E11100C01B403F420F003F54890090
:1044D00008B50A4B1B6870B11818094A904206D9F2
:1044E00001F04EFA0C2303604FF0FF3008BD034A81
:1044F0001060184608BD184608BD00BF34070020EC
:104500000000282030BFFDE772B60722054B1A6471
:10451000054A936B43F040039363BFF34F8F30BF63
:10452000FDE700BF00C00A4000400D4010B421B3B9
:104530000C46254B01211960240444F080045C6082
:10454000986000F58051D96000F50051196100F5BF
:104550004051596100F5804098611C498B640023EB
:10456000CB641B49D1F8B03143F48033C1F8B0318A
:10457000174BD3F8B031002BFAD10121154B19603C
:1045800012B148F2800100E08021124B59600020F6
:1045900098600E498B60C8600D4B4FF00111C3F855
:1045A000BC11D3F8B01141F00101C3F8B011121AD7
:1045B00018BF0122084B1A60054BD3F8B031002B0D
:1045C000FAD15DF8044B7047002000200030002035
:1045D00000002E40202000201C14002010B421B325
:1045E0000C46264B01211960240444F080045C60D1
:1045F000986000F58051D96000F50051196100F50F
:104600004051596100F5804098611D498B6000233D
:10461000CB601C49D1F8B03143F00103C1F8B0318F
:10462000184BD3F8B031002BFAD10121164B196089
:1046300012B148F2800100E08021134B5960002044
:1046400098600F498B64C8640E4B4FF00111C3F89A
:10465000BC11D3F8B01141F48031C3F8B01112B1DC
:104660004FF4803200E00022084B1A60054BD3F86B
:10467000B031002BFAD15DF8044B704700200020C8
:104680000030002000002E40202000201C140020BC
:1046900030B4836B1BB1536843F40043536072B66C
:1046A000436BEBB11A60154BD3F8B0310B4221D1FB
:1046B000134B1D68114BD3F8404144F48044C3F8B8
:1046C0004041D3F8B841D3F8403113F4804F05D1BD
:1046D0000B4B1B685B1BB3F5166FEBD3214209D163
:1046E00082600023C360054CD4F8B0311943C4F88C
:1046F000B0110263426362B630BC704700002E40C6
:10470000041000E070B50646006BB0B1034600240B
:104710005A6812F0800F01D033630CE001341B683B
:10472000012BF5D100233363736304E00568B36B99
:104730009847013C2846002CF8D170BD70B504465E
:104740000E4615464022002101F008FC2660012398
:10475000A360A56370BD00BFF8B5044683B240F204
:104760008162934217D805460E46B3F5D06F80F0AC
:104770000E81B3F5817F00F09A8004D8802B4ED053
:10478000822B54D024E140F20232934270D0B3F530
:10479000A06F18D01CE142F22102934200F00C817C
:1047A00006D8B3F5086F31D0B3F5106F18D00FE10C
:1047B00042F22122934200F0EF8042F221329342F2
:1047C00000F0F48004E1002211461046FFF706FFD6
:1047D000230C5B0643F08073804AC2F85431F8BD65
:1047E000C0F307447E4B1C707C4B7E4AC3F8C82143
:1047F0007D4AC3F8CC217D4AC3F8D02100F0ECFB00
:10480000002211461046FFF7E9FEF8BD744B1B78F5
:104810007748037000220121FFF788FEF8BD744835
:104820000022027042700221FFF780FEF8BD89B2BB
:1048300001F07F03072B00F2CB8001F0800189B2E9
:104840006C4A52F823006A4B00221A705A7011B158
:1048500010F4803F03D129B910F0010F02D00122DA
:10486000634B1A70002202216148FFF75FFEF8BD1A
:1048700089B201F07F03072B00F2AA8001F08001CA
:1048800089B239B15B4951F8232042F4803241F8B2
:10489000232006E0574951F8232042F0010241F855
:1048A0002320002211461046FFF798FEF8BD89B27A
:1048B00001F07F03072B00F28B8001F0800189B2A9
:1048C00039B14C4951F8232022F4803241F8232099
:1048D00006E0484951F8232022F0010241F8232044
:1048E000002211461046FFF779FEF8BD2A0C1C88FD
:1048F000A2424AD1B4B25F88BC4246D1140A032C0A
:1049000001D1037800E01B890C0CA34200D81C469F
:10491000B2F5007F0CD1384B1B7813F0FF0F01D19B
:10492000364900E0364922463648FFF775FA17E067
:10493000B2F5E06F0FD1304B1B7813F0FF0F01D1B0
:104940002F4900E02D492F4D22462846FFF764FAF3
:1049500007236B7004E0224601462A48FFF75CFA01
:10496000284921F01F032144BFF34F8F264A1360CB
:1049700020339942FAD8BFF34F8FBFF36F8F0022D5
:1049800021462048FFF7D2FDF8BD0C3300E01F4B55
:1049900058680028AAD11BE089B239B91C4B1A68A3
:1049A0001C4B1A60C0F307441B4B1C7000221146BD
:1049B0001046FFF713FEF8BD0B0C072B08D1174B61
:1049C00018605960012207211548FFF707FEF8BD5E
:1049D0004FF00112014BC3F8C021F8BD00002E407A
:1049E000401400200200CC00C80002000200C800F1
:1049F00030140020C0012E4018140020D41700608D
:104A000018180060400C202070EF00E0C405002062
:104A1000F4130020883200201416002028140020EF
:104A20003814002072B6012303FA00F0094B1A78FB
:104A300010431870084BD3F8483113F0800F06D19B
:104A4000054A8021C2F844110B43C2F8483162B6CE
:104A5000704700BF1014002000002E4008B50D4A1A
:104A6000136852689BB242F221018B4211D192B27B
:104A70007AB9094B094A92E8030018609980090C39
:104A80009971862805D10220FFF7CCFF5022044BF4
:104A90001A7008BD2814002080320020381400202D
:104AA00020140020012303FA00F0074A137823EAB8
:104AB0000000107030B9054AD2F8483123F0800365
:104AC000C2F84831704700BF1014002000002E408B
:104AD000F8B5614BD3F84441C3F8444114F0010FD9
:104AE00068D0D3F8AC312AE05B4AC2F8AC315A4BFB
:104AF000D3F8402142F40052C3F84021574A906A4B
:104B0000D16AD3F8403113F4005FF0D0524BD3F8A0
:104B1000402122F40052C3F840214FF00112C3F8A3
:104B2000B4214D4BD3F8B43113F0011FF9D1002259
:104B30004B4B1A60FFF710FE474BD3F8AC31002BFC
:104B4000D2D1454BD3F8BC51002D33D0C3F8BC5162
:104B5000434B1B681D4204D00022414B1A60FFF7F3
:104B60007DFF404B1E682E4024D0370C0EE097FA94
:104B7000A7F5B5FA85F5EB01403338481844FFF73F
:104B8000C1FD012303FA05F527EA0507002FEED141
:104B9000B6B20DE096FAA6F5B5FA85F52F4800EB0A
:104BA000C510FFF7AFFD012303FA05F526EA050658
:104BB000002EEFD114F0400F19D0274BD3F8AC21C1
:104BC000C3F8AC21D3F8BC21C3F8BC21224BD3F8E5
:104BD000B031002BFAD1204B4FF0FF32C3F8B42193
:104BE000D3F8843100F0F6F900221E4B1A6014F05D
:104BF000807F03D01C4B1B6803B1984714F0007FE3
:104C000003D01A4B1B6803B1984714F0040F0CD063
:104C1000114BD3F8843113F4007F03D00122144BDD
:104C20001A7002E00022124B1A700B4BD3F8483175
:104C300013F0800F0ED014F0800F0BD00D4B1B78AB
:104C400043B1013BDBB20B4A13701BB90220FFF7E3
:104C500029FFFBBEF8BD00BF00002E400030002041
:104C60001C1400200C140020081400201414002030
:104C7000181400202014002009040AB1002201E0C9
:104C80004FF000521143821E022A10D838B51D463B
:104C900004461A46064800EBC410FFF74FFD2DB13D
:104CA0000120A040034B1C682043186038BD7047AA
:104CB000003000200C14002009040AB1002201E099
:104CC0004FF000521143821E022A14D838B51D46F7
:104CD0000446C30140332A4607481844FFF72EFD17
:104CE00045B104F11000012404FA00F0034B1C68E4
:104CF0002043186038BD7047003000200C1400209D
:104D000010B401240460120442F080024260816009
:104D100001F58052C26001F50052026101F5405276
:104D2000426101F580418161C3615DF8044B7047C8
:104D300008B5831E022B09D80A46C3014033103040
:104D40000121814002481844FFF7A2FC08BD00BFC2
:104D50000030002008B5831E022B07D80A46012127
:104D60008140034B03EBC010FFF792FC08BD00BF6E
:104D7000003000204068704700B585B0114BD3F873
:104D8000200220F07F40104B984202D800EB8003B5
:104D900058000A2201A900F0C1FD002309E004AA7D
:104DA0001A4412F80C1C31B1084A02EB430251803C
:104DB0000133092BF3D901335B00044A137005B0AA
:104DC0005DF804FB00441F407F9698004C070020CC
:104DD000074B1860074B0022C3F884200139C3F841
:104DE0008010D3F8482142F08072C3F84821704700
:104DF0000814002000002E404FF04042014BC3F841
:104E00008420704700002E400022024BC3F884200B
:104E1000704700BF00002E401F4B1B7813F0FF0FA0
:104E200038D11E4B1B7813F0FF0F33D070B51C4BDD
:104E30001D8875B31B4B1A781B4E06EB42161B4B95
:104E400003EBC224C5F5006500232A4621463046FF
:104E5000FFF756FF24F01F032A19BFF34F8F1448A2
:104E6000036020339A42FAD8BFF34F8FBFF36F8F9E
:104E700031460420FFF75CFF0A4A13780133DBB2A6
:104E80001370032B02D90022064B1A700022044B28
:104E90001A8070BD704700BF5614002040140020D7
:104EA000701500205714002080150020A00C202031
:104EB00070EF00E070B503464FF40031124A116004
:104EC000124901EB4024124D05EB4015114E32887A
:104ED00021462846FFF714FF318824F01F032144A0
:104EE000BFF34F8F0C4A136020339942FAD8BFF3B7
:104EF0004F8FBFF36F8F29460320FFF72BFF4FF42F
:104F00000032064B1A6070BD8CE100E0A02C20201E
:104F1000601400206E1500205CEF00E00CE100E062
:104F2000F8B54468C4F30E43224A1488E41AC569EC
:104F3000002C3ADD204B1B78DBB2204A1278D2B22B
:104F400093421DD01E4AD75C1E4A32F81760C6F540
:104F50000072944214D81C4B06EB4720224603EB08
:104F600045211844FEF758FF2644164B23F81760D6
:104F7000164A13681C4414602846FFF79BFFF8BDCF
:104F8000104A22F815400021114A22F81510013369
:104F9000082B00D90B460A4AD554DBB2064A1370D7
:104FA0000A4A13681C441460F8BD2846FFF782FFC4
:104FB000F8BD00BF6E1500205814002060150020B9
:104FC0006415002004160020A02C20207415002059
:104FD00044140020704700BF10B5284B1B7813F015
:104FE000FF0F06D04FF40073254A1380254A138023
:104FF00004E04023224A1380224A138080220021A9
:10500000214800F0ABFF0024204B1C70204B1C807B
:105010004FF4807221461F4800F0A0FF1E4B1C6019
:105020005C609C60DC601D4B1C605C609C60DC60B4
:105030001B4B1C701B4B1C701B4B1C6023462246D9
:1050400010210220FFF738FE184B22460D4909882F
:105050000320FFF711FE2346012209490988042095
:10506000FFF72AFE03E02046FFF724FF0134072C58
:10507000F9DD4B210E48FFF7ABFE10BD18140020E0
:10508000541400206E1500208015002057140020B5
:105090007015002060140020041600204414002025
:1050A000581400206015002074150020E135000020
:1050B000D93400002DE9F047814688464FF400328C
:1050C000274B1A60274B1C78E4B2002739E00134E3
:1050D000082C00D90024244B1E5DC7EB080A234B83
:1050E00033F81650224B33F816106D1AAA4514D215
:1050F00001EB462152461F4B19444846FEF78CFEF1
:105100001D4A1368CAEB03031360194A32F81630BC
:105110009A4422F816A0474613E001EB46212A469E
:10512000144B19444846FEF777FEA944124A136807
:105130005B1B13602F44E3B20A4A13703046FFF73B
:10514000B9FE474504D20D4B1B78DBB29C42BED161
:105150004FF400320A4B1A603846BDE8F08700BFB2
:105160008CE100E06015002064150020041600208A
:1051700044140020A02C2020741500205814002076
:105180000CE100E00D4B1B78DBB20D4A1278D2B275
:1051900093420FD00133082B00D90023094AD25C77
:1051A000094B33F8123003EB4223084A134493F8B7
:1051B000080F70474FF0FF30704700BF60150020A8
:1051C000581400206415002044140020981D20204D
:1051D000014B1868704700BF7415002038B5104B9C
:1051E0001C78E4B215E00134082C00D900240D4BE2
:1051F000185D0D490A680D4B33F810300C4D35F829
:1052000010505B1BD31A0B60FFF754FEE3B2044A45
:105210001370084B1B78DBB29C42E4D138BD00BF51
:10522000601500206415002074150020041600206D
:10523000441400205814002000B583B001210DF162
:105240000700FFF737FF10B19DF8070001E04FF0AE
:10525000FF3003B05DF804FB2DE9F8434D4B1B789C
:1052600013F0FF0F00F0928081468846002786E009
:10527000494B1E78494B03EB4616002425462CE08B
:105280003046FFF777FD10F0800F07D14FF4006232
:10529000434B1A800022434B1A7022E015B9424B4F
:1052A0001C6801253F4B1B7813B13846BDE8F883D5
:1052B0003D4B1B681B1B782B05D90122394B1A70FB
:1052C0003846BDE8F883334B1B7813F0FF0F02D14B
:1052D0003846BDE8F88300F0A9FA314B1B88002B53
:1052E000CED02D4B1C78E4022D4B1D88631B03F59B
:1052F00000632E481844A84534D32A464946FEF791
:105300008BFD2A490C4400234FF4006221463046AD
:10531000FFF7F6FC24F01F0304F50061BFF34F8F85
:10532000234A136020339942FAD8BFF34F8FBFF35B
:105330006F8F31460420FFF7FBFC174A13780133C7
:10534000DBB21370032B02D90022134B1A70144ADC
:105350001388C3EB08081F44994400231380FFF708
:1053600053FD0CE042464946FEF756FDC8EB0505E5
:105370000B4B1D804744FFF73FFD4FF00008B8F18D
:10538000000F7FF475AF3846BDE8F8830020BDE814
:10539000F88300BF4014002057140020801500201F
:1053A0007015002000160020F4130020A00C20200F
:1053B00070EF00E000B583B002AB03F8010D0121EE
:1053C0001846FFF749FF03B05DF804FB38B501222A
:1053D0000D4B1A70002425460EE00C4B1B789C42A6
:1053E00009D00B4800EB4410FFF7C4FC10F0800F0D
:1053F00001D105F500650134032CEED90022024BE2
:105400001A70284638BD00BF5614002057140020DB
:10541000801500201F4B1B7813F0FF0F39D070B59B
:105420001D4B1D88002D33D001221C4B1A701C4BC4
:105430001A781C4E06EB42161B4B03EBC224C5F533
:10544000006500232A4621463046FFF759FC24F028
:105450001F032A19BFF34F8F1448036020339A4269
:10546000FAD8BFF34F8FBFF36F8F31460420FFF799
:105470005FFC0B4A13780133DBB21370032B02D9A4
:105480000022074B1A700023034A1380034A13704B
:1054900070BD704740140020701500205614002085
:1054A0005714002080150020A00C202070EF00E091
:1054B000F8B5144B1E68144B1C6894B1237A73B171
:1054C000104D2F6823681B68204698472B68DB1B0C
:1054D0009B099AB2A280E1888B4200D9E28064697C
:1054E000EBE7084B1B689B1B9B099AB207490A8094
:1054F000074909888B4201D9054B1A80BFF34F8FAA
:10550000F8BD00BF041000E01C1600209A16002011
:105510001816002072B61D4B19881D4B03EB810332
:105520001C4A934202D362B6002070471A6812B92F
:1055300001310433F4E730B4B2FA82F04FF00044A2
:10554000C44022EA04021A6002B901310F4A1180F4
:1055500011490A88013294B20C8062B60C495B1A78
:105560009B100E490968C0EB431303EB83139800AB
:1055700041F67C730344C8180125CD54084B1B88A1
:105580009A4201D9064B1C8030BC70479616002009
:10559000201600209016002098160020901600205B
:1055A000161600204388DA4302F01F014FF0004234
:1055B000CA405B1172B60178012902D90139017024
:1055C0000FE0094951F82300024341F82320074A1C
:1055D0001288934201D2054A1380054A1388013B81
:1055E000138062B6704700BF201600209616002078
:1055F00098160020094B1B7873B9094A094BC3F868
:105600005821D022084B1A704022A3F23E331A6070
:105610000120024B1870704700207047941600203C
:10562000713B00000018002046E400E072B689B922
:1056300002688AB103790F2B10D8264909881941CD
:1056400011F0010F0CD024491944B2EB411F09D1CC
:1056500062B67047002306E0002304E0002302E066
:10566000002300E000231B4A128842FA03F111F0E4
:10567000010F23D110B4012199400A4315490A8032
:1056800062B6D9B20171154CE26F42F0C002E26716
:10569000134A40F282441460917691771176D17763
:1056A0000D4A1A445301036000221A605A609A603E
:1056B000DA601A615A619A61DA6108E001330F2BEE
:1056C000D1D962B6002303601023037170475DF8DF
:1056D000044B70479C1600208074000200C00F40ED
:1056E00000800E4003790F2B10D8094A937672B6CA
:1056F0000279012303FA02F206490B8823EA020326
:105700000B8062B61023037100230360704700BF53
:1057100000800E409C16002008B5EFF3108272B690
:105720000B4B186880B1436909490B6013B1002124
:10573000996102E00021074B196002B962B60023AB
:10574000437783689847E8E702B962B608BD00BFAF
:10575000A0160020A416002008B5FFF7DDFF08BD45
:10576000044B1A68044B1A60044A1368013313602F
:10577000704700BF041000E0EC130020F413002079
:1057800079B1F8B505460B460024561E5AB12A6871
:1057900012685F1C197828469047044432463B46FD
:1057A000F3E7002070472046F8BD00BF00B583B086
:1057B000054B1B88ADF8043003685B68022201A921
:1057C000984703B05DF804FB3006002008B5FCF7ED
:1057D00077F9FCF7CFF900F029F8FAE708B500F0FF
:1057E000FDF808BD08B5FFF7F9FC08BD08B5FFF7DF
:1057F000C9FC08BD08B5FFF71FFD08BD08B5FFF7D8
:10580000E7FC08BD08B5FFF705FE08BD08B5FFF7C2
:10581000DDFD08BD08B508461146FFF71DFD08BDB2
:1058200008B50846FFF7C6FD08BD00BF38B5334BC5
:105830001B78002B60D0324A1278002A5CD10121FB
:105840002F4A117013F0010F0CD0FFF7C1FC08B103
:1058500000F088F82B4B1B7823B1284A137823F0EB
:1058600001031370254B1B7813F0020F12D0002494
:10587000254B1B78A3420DD9244B53F824502B6899
:105880001B692846984710B16B699B68984701349B
:10589000E4B2EDE700221A4B1A70184B1B7813F094
:1058A000040F29D01A4B1B6833B3EFF305831BBBDE
:1058B000EFF3108272B6164B186810B9E2B962B6EF
:1058C00038BD144B1B7813B1B2B962B638BD012193
:1058D000104B197043690E490B6013B10021996197
:1058E00002E000210C4B196002B962B60024447733
:1058F00083689847074B1C7038BD00BF74070020B1
:10590000B116002066180060D0160020B4160020E2
:10591000AC160020B0160020A816002070B4002499
:10592000B0FBF2F302FB130326460D19092B02D834
:105930003033DBB201E03733DBB22B70B0FBF2F077
:1059400008B10134ECE7013600238B5505E0CA5C51
:10595000085DC8540A550133013C9C42F7DC0846F7
:1059600070BC7047704700BF0B460146184600F0F8
:1059700001B800BF13460A460146022000F052BBA0
:10598000014B1868704700BFA00B002070B50F4E88
:105990000F4D761BB61018BF002405D0013455F802
:1059A000043B9847A642F9D10A4E0B4D761B00F0F6
:1059B000CBFCB61018BF002406D0013455F8043BC8
:1059C0009847A642F9D170BD70BD00BFC8180060ED
:1059D000C81800603C190060C8180060024B0146FE
:1059E000186800F003B800BFA00B00202DE9F04FAD
:1059F00001F10B05162D83B0064640F29F8035F06D
:105A0000070500F1BF80A94200F2BC8000F0F4FA63
:105A1000B5F5FC7FC0F09C826B0A00F0BA80042BC5
:105A200000F28381A80900F1390E4FEA4E033830A5
:105A3000C44F07EB8303A3F108015C68A14207D1BF
:105A4000ACE0002A80F2AC80E468A14200F0A680BD
:105A5000636823F003035A1B0F2AF2DDB9493C693E
:105A600001F1080E744500F0B381636823F003036D
:105A70005A1B0F2A00F39981002AC1F814E0C1F8DB
:105A800010E080F29E80B3F5007F80F06781DB0834
:105A900003F1010C01229B1002FA03F34A6851F84A
:105AA0003C80C4F8088001EBCC091A43A9F1080333
:105AB000E3604A6041F83C40C8F80C408310012480
:105AC0009C40944200F28A80144206D120F00300E8
:105AD0006400144200F10400FAD007EBC009CC4680
:105AE0008046DCF80C108C4507D173E1002A80F267
:105AF0008181C9688C4500F06D814B6823F00303F8
:105B00005A1B0F2AF2DD0C46D1F80CC054F8088F4E
:105B10004B1945F001054D6042F00101C8F80CC079
:105B20003046CCF808807B613B61C3F80CE0C3F8D9
:105B300008E059609A5000F061FA1FE0102921D85E
:105B400000F05AFA1025062302207E4F07EB83034C
:105B5000A3F108025C68944200F045816368E16843
:105B6000A56823F00303234430465A68E96042F0F5
:105B700001028D605A6000F041FA0834204603B0FB
:105B8000BDE8F08F00240C232046336003B0BDE84D
:105B9000F08F80234FF0400E3F2049E770465DE7CD
:105BA0002344E1685A68A56842F00102E960304682
:105BB0008D605A6000F022FA0834204603B0BDE838
:105BC000F08F234430465A6842F001025A6000F0D8
:105BD00015FA0834204603B0BDE8F08FBC6863684E
:105BE00023F00308A84504D3C5EB08030F2B00F3EB
:105BF0008C80554BDFF860911A68D9F8003001337A
:105C00002A4404EB080A00F0608102F580520F324A
:105C100022F47F6222F00F0211463046019200F01A
:105C2000EFF9B0F1FF3F8346019A00F058818245B9
:105C300000F2FC80454B1968DA451144196000F008
:105C40005381D9F80000DFF810E101301BBFCAEB27
:105C50000B0A5144CEF800B019601BF0070100F0A8
:105C60001781C1F10800C1F58051834408315A44BD
:105C7000C2F30B02C2EB010949463046019300F022
:105C8000BFF9431C019B00F03F81CBEB00024A446B
:105C900042F001021968C7F808B04944BC42CBF889
:105CA00004201960DFF8A49016D0B8F10F0F40F26D
:105CB000FD806268A8F10C0323F00703E01802F0EE
:105CC00001024FF0050E1A430F2B6260C0F804E08A
:105CD000C0F808E000F21C811D4BBC681A689142B4
:105CE00088BF19601B4B1A689142626888BF1960AF
:105CF00022F003029542A2EB050301D80F2B04DC2E
:105D0000304600F07BF9002438E7621943F00103C4
:105D100045F0010565603046BA60536000F06EF9E9
:105D20000834204603B0BDE8F08F142B71D9542BF2
:105D300000F2A480280B00F16F0E4FEA4E036E3084
:105D400076E600BFA40B0020DC160020E016002041
:105D5000D8160020D4160020B00F00205A0A042ABA
:105D60005ED9142A00F2B38002F15C0149005B3273
:105D700007EB810C57F82110DFF8DC81ACF1080C3F
:105D80008C4500F088804A6822F00302934202D2D8
:105D900089688C45F7D1D1F80CC07A68C4F80CC07A
:105DA000A160CCF80840CC6088E6631942F0010796
:105DB00045F00105656030464B610B61C3F80CE0AE
:105DC000C3F808E05F609A50083400F017F9D5E690
:105DD0004A6873E608F1010818F0030F0CF1080C8B
:105DE0007FF47FAE30E0DC68A34208BF02303FF4AE
:105DF00035AEB3E60B440C465A68C96854F8085FE0
:105E000042F001025A603046E9608D6000F0F6F819
:105E1000B4E603F15C0E03F15B004FEA4E0307E6C4
:105E20009A0902F1390149003832A1E7BC424A4BD4
:105E30003FF400AF9C68626822F003025AE759F809
:105E40000839994540F0828010F0030F00F1FF30CF
:105E5000F5D17B6823EA04037B6064009C423FF633
:105E6000BDAE002C3FF4BAAE1C4240467FF435AEC6
:105E700064001C4200F10400FAD02EE6B3F5AA7FBC
:105E800018D8E80B00F1780E4FEA4E037730CFE5D3
:105E90004FF48051EBE60121D8F80430921001FA5A
:105EA00002F21A43C8F80420614677E70123CBF8D1
:105EB000043025E740F25452934220D8A80C00F158
:105EC0007D0E4FEA4E037C30B2E51032A4E6542A30
:105ED00026D81A0B02F16F0149006E3248E7BC6800
:105EE000626822F0030205E7CAF30B0000287FF482
:105EF000A8AE4244BB6842F001025A60ECE6FE23C1
:105F00004FF07F0E7E2093E501224FF00009C1E69D
:105F100004F10801304600F025F9D9F80010DBE65D
:105F2000B2F5AA7F05D8DA0B02F178014900773281
:105F30001EE740F254518A4205D89A0C02F17D01C5
:105F400049007C3214E7FE217E2211E77B6884E75A
:105F5000E808431C5B00F8E5A40B002070B484073C
:105F600046D0541E002A41D0CDB2034602E0621E44
:105F7000E4B3144603F8015B9A07F8D1032C2ED939
:105F8000CDB245EA05250F2C45EA054519D903F19F
:105F900010022646103E0F2E42F8105C42F80C5CB0
:105FA00042F8085C42F8045C02F11002F2D8A4F155
:105FB000100222F00F0204F00F041032032C1344DD
:105FC0000DD91E462246043A032A46F8045BFAD845
:105FD000221F22F003020432134404F003042CB104
:105FE000C9B21C4403F8011BA342FBD170BC70472B
:105FF00014460346C2E700BF704700BF704700BFAA
:1060000038B5074C0023054608462360FEF760FAC2
:10601000431C00D038BD2368002BFBD02B6038BD5B
:106020008C3200202DE9F047254C2568D5F84841F1
:106030000646884692469946C4B360681F2817DC16
:10604000431C76B104EB80050122C5F888A0D4F882
:10605000881182401143022EC4F88811C5F80891B6
:106060001ED00230636044F820800020BDE8F08735
:10607000144B03B34FF4C870FFF7B0FC0446D0B123
:10608000D5F84831002780E88800C5F848413846EF
:106090000123C4F88871C4F88C71002EE1D0D1E7D7
:1060A000D4F88C110A43C4F88C21DAE705F5A674FC
:1060B000C5F84841C1E74FF0FF30BDE8F08700BFA9
:1060C0005C0600209D400000F8B5234F0C460646B4
:1060D000FFF792FFBB685D6825F00305291B01F6F9
:1060E000EF7121F47F6121F00F01A1F58054B4F527
:1060F000805F07DB00213046FFF782FFBB682B443F
:10610000984204D03046FFF779FF0020F8BD614285
:106110003046FFF775FF01300DD0104BBA68196893
:106120002D1B45F001053046091B55601960FFF72E
:1061300065FF0120F8BD00213046FFF761FFBA6816
:10614000831A0F2BDEDD064C0449246843F001035B
:10615000001B53600860D5E7A40B0020E016002068
:10616000B00F0020002945D02DE9F0410D468046B2
:10617000FFF742FF55F8047C6A4927F00103A5F1B7
:106180000804E2188E685068B24220F0030062D022
:10619000FE0750600BD455F8087CE41B01F1080E93
:1061A000A56875453B446FD0E768EF60BD60151882
:1061B0006D68ED0742D543F001026260E350B3F52C
:1061C000007F18D2DB085A1C4D6851F83270A76066
:1061D00001209B1000FA03F301EBC2001D430838B5
:1061E000E0604D6041F83240FC604046BDE8F0415F
:1061F000FFF704BF70475A0A042A53D89A0902F1DC
:1062000039077F0002F1380501EB870051F827209C
:106210004449083890424DD0516821F003018B4227
:1062200002D292689042F7D1D068E060A2608460A8
:10623000D4604046BDE8F041FFF7E0BE95683A4FB4
:10624000BD4203443FD0D068E86043F0010285605E
:106250006260E350B3E7FF07034407D455F8082C06
:10626000A41A1344A068E268C26090602F4A1268C2
:1062700043F00100934260608C60B6D32C4B4046E3
:106280001968FFF721FFB0E711184968C90744D41E
:106290009168D268CA60034443F001009160606075
:1062A000E350A2E7142A17D802F15C077F0002F13D
:1062B0005B05A9E7AA104B68012505FA02F2134312
:1062C0004B600246B1E743F001024C610C61E560AE
:1062D000A5606260E35088E7542A06D81A0B02F1E1
:1062E0006F077F0002F16E058EE7B2F5AA7F06D830
:1062F000DA0B02F178077F0002F1770584E740F2BC
:106300005450824206D89A0C02F17D077F0002F1B8
:106310007C0579E7FE277E2576E743F0010262607F
:10632000E35062E7A40B0020AC0B0020AC0F002070
:10633000DC160020000000005FF800F0E9150060A6
:106340005FF800F0E91100605FF800F06918006084
:04635000F8B500BFDD
:0863540014F6FF7F01000000B8
:10635C000000000000000000C52B00000000000041
:10636C0000000000C52B000054657374206C6F6135
:10637C0064206F6620463332206F75742077697401
:10638C006820000063616C6C20746F206265676923
:10639C006E282920696E20544C5F417564696F4FDB
:1063AC0075747075744932535F4F415F46333220B8
:1063BC00636F6E7374727563746F722E00000000DD
:1063CC000000240348066A098C0CAB0FC812E215B6
:1063DC00F9180B1C1A1F2322282526281F2B112ED7
:1063EC00FB30DF33BA368C39563C173FCE417A44FA
:1063FC001C47B4493F4CBF4E33519B53F555425843
:10640C00825AB35CD75EEB60F162E864CF66A66833
:10641C006D6A236CC96D5E6FE2705472B57304754E
:10642C0041766B77847889797C7A5C7B297CE37CF8
:10643C00897D1D7E9C7E097F617FA67FD87FF57F3D
:10644C00FF7FF57FD87FA67F617F097F9C7E1D7EB5
:10645C00897DE37C297C5C7B7C7A897984786B7779
:10646C0041760475B5735472E2705E6FC96D236C1E
:10647C006D6AA668CF66E864F162EB60D75EB35CC8
:10648C00825A4258F5559B533351BF4E3F4CB44939
:10649C001C477A44CE41173F563C8C39BA36DF3311
:1064AC00FB30112E1F2B2628282523221A1F0B1CEC
:1064BC00F918E215C812AB0F8C0C6A0948062403B4
:1064CC000000DCFCB8F996F674F355F038ED1EEAD2
:1064DC0007E7F5E3E6E0DDDDD8DADAD7E1D4EFD192
:1064EC0005CF21CC46C974C6AAC3E9C032BE86BB4F
:1064FC00E4B84CB6C1B341B1CDAE65AC0BAABEA7E6
:10650C007EA54DA329A1159F0F9D189B31995A97D4
:10651C009395DD933792A2901E8FAC8D4B8CFC8A99
:10652C00BF8995887C8777868485A484D7831D83CF
:10653C007782E3816481F7809F805A8028800B806A
:10654C0001800B8028805A809F80F7806481E381D2
:10655C0077821D83D783A484848577867C879588EE
:10656C00BF89FC8A4B8CAC8D1E8FA2903792DD9329
:10657C0093955A973199189B0F9D159F29A14DA35F
:10658C007EA5BEA70BAA65ACCDAE41B1C1B34CB6CE
:10659C00E4B886BB32BEE9C0AAC374C646C921CCD6
:1065AC0005CFEFD1E1D4DAD7D8DADDDDE6E0F5E3DB
:1065BC0007E71EEA38ED55F074F396F6B8F9DCFCF3
:1065CC00000000000000000000000000F1030000CB
:1065DC00850300008105000089030000D104000040
:1065EC00D8399D270054EA2A00A4781F007B9A17FB
:1065FC006CC00F40C0000000504F0000850A000026
:10660C000C000000130000000000000024851F4057
:10661C000B000000130000000000000028851F4044
:10662C000D000000130000000000000020851F403A
:10663C000A00000013000000010000001C851F4030
:10664C00000000000000000059160000413E000050
:10665C00B90B0000BD0B00000000000000000000A2
:10666C00351A00000000000000000000911F00001F
:10667C0000000000000000007D200000A9200000A8
:10668C00B90B0000792000003520000041200000EB
:10669C006120000000000042C8801F40B8821F40EB
:1066AC000800000000000042C4801F40B4821F405C
:1066BC000400000000C0004224801F4014821F40D0
:1066CC001000000000C0004228801F4018821F40AC
:1066DC002000000000C000422C801F401C821F4084
:1066EC004000000000C0004234801F4024821F4044
:1066FC00000100000040004264811F4054831F4091
:10670C00000400000040004280811F4070831F4045
:10671C0000000200004000427C811F406C831F403F
:10672C00000001000040004268811F4058831F4058
:10673C0000080000004000423C811F402C831F4099
:10674C00010000000040004244811F4034831F4080
:10675C00040000000040004240811F4030831F4075
:10676C00020000000040004248811F4038831F4057
:10677C00080000000000004204811F40F4821F400A
:10678C00000004000000004208811F40F8821F40F6
:10679C00000008000000004218811F4008831F40C1
:1067AC00000080000000004214811F4004831F4041
:1067BC00000040000000004200811F40F0821F409A
:1067CC000000020000000042FC801F40EC821F40D1
:1067DC00000001000000004224811F4014831F4070
:1067EC00000000040000004228811F4018831F4055
:1067FC0000000008000000421C811F400C831F4059
:10680C00000000010000004220811F4010831F4047
:10681C000000000200000042EC801F40DC821F40A0
:10682C000010000000000042F0801F40E0821F407A
:10683C00002000000000004234811F4024831F40D0
:10684C00000000400000004238811F4028831F4098
:10685C00000000800080004294801F4084821F4012
:10686C000000040000C0004290801F4080821F4046
:10687C000000008000800042A8801F4098821F40CA
:10688C000000800000800042A4801F4094821F40C2
:10689C0000004000004000426C811F405C831F40A0
:1068AC000010000000C0004230801F4020821F40BA
